:100000000C9437000C9462020C9462020C9462020D
:100010000C9462020C9462020C9462020C946202D0
:100020000C9462020C9462020C9462020C946202C0
:100030000C9462020C9462020C9462020C946202B0
:100040000C9462020C9462020C9462020C946202A0
:100050000C9462020C9462020C9462020C94620290
:100060000C9462020C9462020100011280001124BF
:100070001FBECFEFD8E0DEBFCDBFE8E6F0E040E046
:1000800017C0B591A59135912591059107FD0CC03B
:1000900095918591EF01F92FE82F05900D92A21708
:1000A000B307D9F7FE0104C01D92A217B307E1F709
:1000B000ED36F40731F70E9461000C945F00F8946C
:0200C000FFCF70
:1000C200F89414B882E390E00E9474010E943C020A
:1000D2000E9425020E945D0278940E944D028532A0
:1000E20029F08635A9F18332C1F708C0C091100109
:1000F200D0911101C430D1055CF01BC083B18130B5
:10010200E9F78AE590E00E941B010E940602E5CF12
:100112000E944D02C85FDE4F8883C0911001D091CA
:1001220011012196D0931101C0931001C430D10561
:100132007CF310921101109210010E9449018091EA
:100142000A0190910B010E941B010E940602C5CF79
:1001520080E090E00E949A0180E090E00E949A0183
:100162009C01220F331F220F331F820F931F9923EB
:1001720014F481509C4F892F880F880B9595959583
:1001820090930201809303010E94E80086E50E9499
:10019200450280911001909111018330910594F4F0
:1001A200FC01E45FFE4F80810E94450280911001B4
:1001B2009091110101969093110180931001833067
:0E01C200910574F3109211011092100186CF76
:1001D0002091020130910301C90164E670E00E94A0
:1001E000DE01E62F862F972F909301018093000167
:1001F000A901481B590B9A01ADECBCEC0E941602F8
:1002000096958795969587959695879590930501F0
:1002100080930401481B590B50930701409306013A
:10022000E05DACE0B1E0EC93805D11968C931197AA
:060230001296EC93089504
:10023600CF93DF93EC01219AE0E8F0E080818F7B99
:10024600808380818068808320910E0130910F0128
:10025600032E000C440B550B69E07DE380E090E033
:100266000E94BC012150310941095109DE010E9459
:10027600550224E630E040E050E00E94BC01309395
:0C028600890020938800DF91CF9108953B
:10029200E8E0F1E0808194E6899FA0011124509367
:1002A200010140930001218130E0C901880F991FAB
:1002B200220F331F220F331F220F331F820F931F70
:1002C2009093050180930401228130E0309307016D
:1002D20020930601840F951F820F931F90930B01A9
:0602E20080930A0108955B
:1002E8009C01E0E8F0E080818E7F808380818260DD
:1002F8008083E1E8F0E0808188608083808180618C
:10030800808330930F0120930E01032E000C440BC1
:10031800550B69E07DE380E090E00E94BC0121502C
:0C0328003109309387002093860008956F
:10033400ECE7F0E09081907F90839081892B80831B
:10034400EAE7F0E080818068808383E08A95F1F7B2
:100354000000808180648083808184FFFDCFEAE790
:10036400F0E0808180618083108280917800909198
:04037400790008956F
:10037800A1E21A2EAA1BBB1BFD010DC0AA1FBB1FA1
:10038800EE1FFF1FA217B307E407F50720F0A21B13
:10039800B30BE40BF50B661F771F881F991F1A9480
:1003A80069F760957095809590959B01AC01BD01AA
:0403B800CF010895D4
:1003BC0097FB072E16F4009407D077FD09D00E9406
:1003CC00F20107FC05D03EF4909581959F4F08955E
:0803DC00709561957F4F0895B3
:1003E400AA1BBB1B51E107C0AA1FBB1FA617B70757
:1003F40010F0A61BB70B881F991F5A95A9F7809573
:080404009095BC01CD010895A3
:10040C001092850010928400E1E8F0E08081816018
:10041C00808380818D7F8083808184608083089538
:10042C00A29FB001B39FC001A39F700D811D112429
:0E043C00911DB29F700D811D1124911D089518
:10044A001092C50087E68093C40088E18093C100BA
:08045A008EE08093C2000895BA
:100462000E941602A59F900DB49F900DA49F800D2F
:06047200911D1124089504
:10047800ECE7F0E0108280E4808387E080937A00E4
:020488000895D5
:10048A00E0ECF0E0908195FFFDCF8093C6000895DF
:10049A00E0ECF0E080818823ECF78091C6000895B3
:1004AA00B7FF0C9431020E943102821B930B08950C
:0A04BA00A89588E180936000089582
:0404C4000C94000094
:00000001FF
