:100000000C943A000C949D020C949D020C94820175
:100010000C949D020C949D020C949D020C949D02E4
:100020000C949D020C949D020C949D020C949D02D4
:100030000C949D020C949D020C949D020C949D02C4
:100040000C949D020C949D020C949D020C949D02B4
:100050000C949D020C949D020C949D020C949D02A4
:100060000C949D020C949D0201000112800112016A
:100070001300053E11241FBECFEFD8E0DEBFCDBF79
:10008000E8E6F0E040E017C0B591A59135912591E3
:10009000059107FD0CC095918591EF01F92FE82F8F
:1000A00005900D92A217B307D9F7FE0104C01D9267
:1000B000A217B307E1F7E437F40731F70E946400B1
:0800C0000C946200F894FFCFDC
:1000C800F8948CEF84B980E496E00E94EC010E94D9
:1000D8005D020E9498020E94690286E490E00E94F4
:1000E80029010E943E027894809112010E948002A8
:1000F8000E948802853229F08635A9F18332A1F75A
:1001080008C0C0911001D0911101C430D1055CF034
:100118001BC083B18034E9F78AE590E00E94290189
:100128000E943E02E1CF0E948802C85FDE4F8883AA
:10013800C0911001D09111012196D0931101C09363
:100148001001C430D1057CF31092110110921001F6
:100158000E94570180910A0190910B010E94290188
:100168000E943E02C1CF80E090E00E94A80180E09A
:1001780090E00E94A8019C01220F331F220F331F19
:10018800820F931F992314F481509C4F892F880F55
:10019800880B9595959590930201809303010E9491
:1001A800F60086E50E94800280911001909111016D
:1001B8008330910594F4FC01E45FFE4F80810E9436
:1001C8008002809110019091110101969093110184
:1001D800809310018330910574F3109211011092ED
:0401E800100182CFB1
:1001EC002091020130910301C90164E670E00E9484
:1001FC001602E62F862F972F909301018093000112
:10020C00A901481B590B9A01ADECBCEC0E944E02A3
:10021C0096958795969587959695879590930501D4
:10022C0080930401481B590B50930701409306011E
:10023C00E05DACE0B1E0EC93805D11968C9311978E
:06024C001296EC930895E8
:10025200CF93DF93EC01219AE0E8F0E080818F7B7D
:10026200808380818068808320910E0130910F010C
:10027200032E000C440B550B69E07DE380E090E017
:100282000E94CA012150310941095109DE010E942F
:10029200900224E630E040E050E00E94CA01309330
:0C02A200890020938800DF91CF9108951F
:1002AE00E8E0F1E0808194E6899FA001112450934B
:1002BE00010140930001218130E0C901880F991F8F
:1002CE00220F331F220F331F220F331F820F931F54
:1002DE009093050180930401228130E03093070151
:1002EE0020930601840F951F820F931F90930B018D
:0602FE0080930A0108953F
:100304001F920F920FB60F9211242F933F934F9386
:100314005F936F937F938F939F93AF93BF93EF9369
:10032400FF930E94010284E085B9FF91EF91BF9190
:10033400AF919F918F917F916F915F914F913F9179
:0C0344002F910F900FBE0F901F90189586
:10035000ECE7F0E09081907F90839081892B8083FF
:10036000EAE7F0E080818068808383E08A95F1F796
:100370000000808180648083808184FFFDCFEAE774
:10038000F0E080818061808310828091780090917C
:040390007900089553
:10039400A1E21A2EAA1BBB1BFD010DC0AA1FBB1F85
:1003A400EE1FFF1FA217B307E407F50720F0A21BF7
:1003B400B30BE40BF50B661F771F881F991F1A9464
:1003C40069F760957095809590959B01AC01BD018E
:0403D400CF010895B8
:1003D800E0E8F0E020812E7F2083208122602083C6
:1003E800E1E8F0E0208128602083208120612083DB
:0A03F80090930F0180930E01089509
:1004020020910E0130910F01032E000C440B550B6D
:1004120069E07DE380E090E00E94CA012150310949
:0A04220030938700209386000895B0
:10042C0097FB072E16F4009407D077FD09D00E9495
:10043C002A0207FC05D03EF4909581959F4F0895B4
:08044C00709561957F4F089542
:10045400AA1BBB1B51E107C0AA1FBB1FA617B707E6
:1004640010F0A61BB70B881F991F5A95A9F7809502
:080474009095BC01CD01089533
:10047C001092850010928400E1E8F0E080818160A8
:10048C00808380818D7F80838081846080830895C8
:10049C00A29FB001B39FC001A39F700D811D1124B9
:0E04AC00911DB29F700D811D1124911D0895A8
:1004BA001092C50087E68093C40088E18093C1004A
:0804CA008EE08093C20008954A
:1004D200E8E6F0E0808181608083D89AEDE6F0E082
:0804E200808181608083089590
:1004EA000E944E02A59F900DB49F900DA49F800D6F
:0604FA00911D112408957C
:10050000E0ECF0E0908195FFFDCF8093C600089568
:10051000E0ECF0E080818823ECF78091C60008953C
:10052000B7FF0C9475020E947502821B930B08950D
:0A053000A89588E18093600008950B
:04053A000C9400001D
:01053E00526A
:00000001FF
