:100000000C9440000C946C040C94C9050C94C90524
:100010000C94C9050C94C9050C94C9050C94C90528
:100020000C94C9050C94C9050C94C9050C94C90518
:100030000C94C9050C94C9050C94C9050C94C90508
:100040000C94C9050C94C9050C94C9050C94C905F8
:100050000C94C9050C94C9050C94C9050C94C905E8
:100060000C94C9050C94C9050100011E80011E01F4
:1000700020000B96012001238001230124000B980E
:1000800011241FBECFEFD8E0DEBFCDBFE8E6F0E021
:1000900040E017C0B591A59135912591059107FDD7
:1000A0000CC095918591EF01F92FE82F05900D92E5
:1000B000A217B307D9F7FE0104C01D92A217B30718
:1000C000E1F7E038F40731F70E946A000C94680009
:0400D000F894FFCFD2
:1000D400F894209A2F9A84E690E00E9498040E9453
:1000E4006D050E945405789401E011E0EE24E39438
:1000F400F12CBB24B3940F2EFCE0CF2EF1E0DF2EC5
:10010400F02D0E948C05F80180830E948405F8017B
:1001140080818434D1F018F4813401F1A1C0853494
:1001240061F0863509F09CC0C0911E01D0911F0179
:10013400C830D1050CF476C08FC0C0911E01D09197
:100144001F01C930D10584F149C0C0911E01D0916D
:100154001F01C830D1050CF446C05FC0C0911E0118
:10016400D0911F01C630D105D4F40E948C05CF5F15
:10017400DE4F8883E0911E01F0911F01EF5FFE4F77
:1001840080810E948405C0911E01D0911F01219697
:10019400D0931F01C0931E01C630D10534F3F092F1
:1001A4001F01E0921E015CC00E948C05CF5FDE4FF0
:1001B4008883E0911E01F0911F01EF5FFE4F808163
:1001C4000E948405C0911E01D0911F012196D093F5
:1001D4001F01C0931E01C930D10534F3F0921F01F1
:1001E400E0921E013DC00E948C05CF5FDE4F8883E4
:1001F400E0911E01F0911F01EF5FFE4F80810E948C
:100204008405C0911E01D0911F012196D0931F0136
:10021400C0931E01C830D10534F3F0921F01E0925F
:100224001E011EC00E948C05CF5FDE4F8883E091C3
:100234001E01F0911F01EF5FFE4F80810E94840533
:10024400C0911E01D0911F012196D0931F01C0932C
:100254001E01C830D10534F3F0921F01E0921E0153
:10026400F8018081843451F018F48134D1F049CFFD
:10027400853461F0863509F443C043CFC091200131
:10028400D0912101C330D1057CF028C084E190E0F5
:100294000E943E04809123010E948405B0922201B1
:1002A40030CF0E9461052DCF0E948C05C65FDE4FC2
:1002B4008883E0912001F0912101E65FFE4F808167
:1002C4000E948405C0912001D09121012196D093F0
:1002D4002101C0932001C330D10534F310922101D0
:1002E400109220010E948B0380911C0190911D01AA
:1002F4000E943E0410921D0110921C012D9A01CF00
:1003040080E090E00E94BE04BC01990F880B990B19
:100314000E94D40320E030E040EA50E40E94C20589
:1003240020E030E040E85AE30E94C20560930601F1
:100334007093070180930801909309010E94BB0107
:1003440086E50E9484058AE30E948405F601808183
:100354000E948405F60181810E948405F601828150
:100364000E9484050E948C051092210110922001A4
:02037400C8CEF1
:100376004F925F926F927F928F929F92AF92BF92AF
:10038600CF92DF92EF92FF92CF93DF9320E030E09F
:1003960048EC52E4609106017091070180910801D2
:1003A600909109010E94C2056B017C0160930601D0
:1003B60070930701809308019093090120E030E0D3
:1003C60048EC52E40E94BE054B015C0160930E01AD
:1003D60070930F0180931001909311019B01AC0162
:1003E600C701B6010E949C052B013C0120E030E0CC
:1003F60040E251E40E94BE056B017C01609312014C
:100406007093130180931401909315019B01AC0125
:10041600C301B2010E949C052B013C0160931601A9
:10042600709317018093180190931901CCE0D1E0E5
:1004360020E030E040E452E4C501B4010E949D058D
:100446000E940F04688320E030E040E452E4C701D4
:10045600B6010E949D050E940F04698320E030E0EA
:1004660040E452E4C301B2010E949D050E940F04BC
:100476006A83DF91CF91FF90EF90DF90CF90BF908E
:10048600AF909F908F907F906F905F904F90089560
:1004960010C00E94AA0558F00E94A30540F029F456
:1004A6005F3F29F00C94B80551110C94B2050C94D9
:1004B600C6050E94E00468F39923B1F3552391F32E
:1004C600951B550BBB27AA2762177307840738F0BD
:1004D6009F5F5F4F220F331F441FAA1FA9F335D01A
:1004E6000E2E3AF0E0E832D091505040E695001CCE
:1004F600CAF72BD0FE2F29D0660F771F881FBB1F88
:10050600261737074807AB07B0E809F0BB0B802D65
:10051600BF01FF2793585F4F3AF09E3F510578F091
:100526000C94B8050C94B2055F3FE4F3983ED4F3FF
:10053600869577956795B795F7959F5FC9F7880F65
:10054600911D9695879597F90895E1E0660F771FB7
:10055600881FBB1F621773078407BA0720F0621B48
:0E056600730B840BBA0BEE1F88F7E095089517
:100574000FC00E94A30538F00E94AA0520F095231D
:1005840011F00C94B8050C94C60511240C94B20512
:100594000E94E00470F3959FC1F3950F50E0551F3E
:1005A400629FF001729FBB27F00DB11D639FAA27C4
:1005B400F00DB11DAA1F649F6627B00DA11D661F13
:1005C400829F2227B00DA11D621F739FB00DA11D34
:1005D400621F839FA00D611D221F749F3327A00DEE
:1005E400611D231F849F600D211D822F762F6A2F8A
:1005F40011249F5750409AF0F1F088234AF0EE0FEF
:10060400FF1FBB1F661F771F881F91505040A9F71B
:100614009E3F510580F00C94B8050C94B2055F3FE1
:10062400E4F3983ED4F3869577956795B795F79557
:10063400E7959F5FC1F7FE2B880F911D96958795CF
:0406440097F9089585
:1006480011C00E94A30538F00E94AA0520F039F4D1
:100658009F3F19F426F40C94C6050EF4E095E7FBC9
:100668000C94B805E92F0E94E00458F3BA17620702
:1006780073078407950720F079F4A6F50C94B10563
:100688000EF4E0950B2EBA2FA02D0B01B9019001A5
:100698000C01CA01A0011124FF27591B99F0593FE9
:1006A80050F4503E68F11A16F040A22F232F342F31
:1006B8004427585FF3CF469537952795A795F0407F
:1006C8005395C9F77EF41F16BA0B620B730B840B94
:1006D800BAF09150A1F0FF0FBB1F661F771F881F4C
:1006E800C2F70EC0BA0F621F731F841F48F48795A4
:1006F80077956795B795F7959E3F08F0B0CF939596
:0E070800880F08F09927EE0F979587950895B2
:10071600CF92DF92EF92FF92CF93DF93CAE0D1E0C0
:10072600688170E060537109072E000C880B990BE5
:100736000E94D40320E030E040E251E40E94C2056A
:100746006B017C0160931201709313018093140175
:1007560090931501698170E060537109072E000CB2
:10076600880B990B0E94D4039B01AC016093160180
:10077600709317018093180190931901C701B60170
:100786000E949D050E940F0470931D0160931C0139
:0E079600DF91CF91FF90EF90DF90CF9008950C
:1007A400E89409C097FB3EF4909580957095619507
:1007B4007F4F8F4F9F4F9923A9F0F92F96E9BB27BD
:1007C4009395F695879577956795B795F111F8CF39
:1007D400FAF4BB0F11F460FF1BC06F5F7F4F8F4FA4
:1007E4009F4F16C0882311F096E911C0772321F09A
:1007F4009EE8872F762F05C0662371F096E8862F32
:1008040070E060E02AF09A95660F771F881FDAF788
:0A081400880F9695879597F90895CF
:10081E000E94E80488F09F5798F0B92F9927B75196
:10082E00B0F0E1F0660F771F881F991F1AF0BA9586
:10083E00C9F714C0B13091F00E94B105B1E008952E
:10084E000C94B105672F782F8827B85F39F0B93F20
:10085E00CCF3869577956795B395D9F73EF4909539
:0E086E008095709561957F4F8F4F9F4F089535
:10087C00CF93DF93EC01219AE0E8F0E080818F7B4D
:10088C00808380818068808320911A0130911B01C4
:10089C00032E000C440B550B69E07DE380E090E0E7
:1008AC000E9402052150310941095109DE010E94C3
:1008BC00940524E630E040E050E00E9402053093BD
:0C08CC00890020938800DF91CF910895EF
:1008D8001F920F920FB60F9211242F933F934F93AD
:1008E8005F936F937F938F939F93AF93BF93EF9390
:1008F800FF9380912201882331F00E9461050E94B4
:10090800350510922201FF91EF91BF91AF919F9110
:100918008F917F916F915F914F913F912F910F90A0
:080928000FBE0F901F901895FF
:100930009C01E0E8F0E080818E7F8083808182608E
:100940008083E1E8F0E0808188608083808180613D
:10095000808330931B0120931A01032E000C440B5B
:10096000550B69E07DE380E090E00E940205215094
:0C09700031093093870020938600089521
:10097C00ECE7F0E09081907F90839081892B8083CD
:10098C00EAE7F0E080818068808383E08A95F1F764
:10099C000000808180648083808184FFFDCFEAE742
:1009AC00F0E080818061808310828091780090914A
:0409BC007900089521
:1009C00057FD9058440F551F59F05F3F71F0479500
:1009D000880F97FB991F61F09F3F79F087950895E5
:1009E000121613061406551FF2CF4695F1DF08C004
:1009F000161617061806991FF1CF86957105610521
:040A000008940895B9
:100A0400A1E21A2EAA1BBB1BFD010DC0AA1FBB1F0E
:100A1400EE1FFF1FA217B307E407F50720F0A21B80
:100A2400B30BE40BF50B661F771F881F991F1A94ED
:100A340069F760957095809590959B01AC01BD0117
:040A4400CF01089541
:100A4800092E0394000C11F4882352F0BB0F40F4D4
:100A5800BF2B11F460FF04C06F5F7F4F8F4F9F4F14
:020A68000895EF
:100A6A001092850010928400E1E8F0E080818160B4
:100A7A00808380818D7F80838081846080830895D4
:100A8A00A29FB001B39FC001A39F700D811D1124C5
:0E0A9A00911DB29F700D811D1124911D0895B4
:100AA80052988BB18BB9E9E6F0E080818E7F808324
:0A0AB800808182608083E89A08952F
:100AC200E1E8F0E080818E7F808380818D7F80836A
:080AD20080818B7F8083089571
:100ADA001092C50087E68093C40088E18093C10024
:080AEA008EE08093C200089524
:100AF2000E944505A59F900DB49F900DA49F800D67
:060B0200911D112408956D
:100B0800E0ECF0E0908195FFFDCF8093C60008955A
:100B1800E0ECF0E080818823ECF78091C60008952E
:100B2800B7FF0C9479050E947905821B930B0895F1
:0E0B38005058BB27AA270E9424030C942405C2
:0E0B460000240A9416161706180609060895CC
:0E0B540000240A9412161306140605060895CE
:0E0B6200E894BB2766277727CB0197F9089503
:0C0B700097F99F6780E870E060E008954E
:080B7C000E944B020C942405B9
:080B84000E94BA020C94240542
:060B8C009FEF80EC0895CC
:040B92000C940000BF
:020B960001005C
:010B9800520A
:00000001FF
