:100000000C945E000C94D7030C94B0030C948600FF
:100010000C9486000C9486000C9486000C94860048
:100020000C9486000C9486000C9486000C94860038
:100030000C9486000C94FE030C9486000C948600AD
:100040000C940E030C9486000C947E030C945803BD
:100050000C9486000C9486000C9486000C94860008
:100060000C9486000C948600000000080002010039
:100070000003040700000000000000000000000072
:10008000250028002B0000000000240027002A0083
:10009000040404040404040402020202020203032E
:1000A0000303030301020408102040800102040836
:1000B00010200102040810202504890611241FBE07
:1000C000CFEFD8E0DEBFCDBF22E0ACEAB1E001C0A7
:1000D0001D92A936B207E1F711E0A0E0B1E0E0E33C
:1000E000F2E102C005900D92AC3AB107D9F710E0E9
:1000F000CDE5D0E004C02197FE010E941307CC3566
:10010000D107C9F70E94AC040C940B090C940000B1
:10011000AF92BF92CF92DF92EF92FF920F931F9315
:10012000CF93DF936C017B018B01040F151FEB0153
:100130005E01AE18BF08C017D10759F06991D6010A
:10014000ED91FC910190F081E02DC6010995892B7C
:1001500079F7C501DF91CF911F910F91FF90EF903B
:10016000DF90CF90BF90AF900895FC01538D448DE8
:10017000252F30E0842F90E0821B930B541710F052
:10018000CF96089501970895FC01918D828D98175F
:1001900061F0A28DAE0FBF2FB11D5D968C91928D37
:1001A0009F5F9F73928F90E008958FEF9FEF089568
:1001B000EF92FF920F931F93CF93DF937B018C01FC
:1001C000D0E0C0E02FB7F8948091BE019091BF01BC
:1001D000A091C001B091C1012FBF8093CA0190933B
:1001E000CB01A093CC01B093CD0182EC91E00E94B1
:1001F000C40097FF2CC02FB7F8948091BE01909156
:10020000BF01A091C001B091C1012FBF4091CA01AF
:100210005091CB016091CC017091CD01841B950B65
:10022000A60BB70B4091C6015091C7016091C80160
:100230007091C90184179507A607B707B0F2CE01E0
:10024000DF91CF911F910F91FF90EF9008958A3029
:100250009105A9F3F80181938F012196EC16FD0613
:1002600009F0B0CFECCFFC01918D828D981731F061
:10027000828DE80FF11D858D90E008958FEF9FEF3F
:100280000895FC01918D228D892F90E0805C9F4F15
:10029000821B91098F739927089582EC91E00E9447
:1002A000410121E0892B09F420E0822F089580E0AC
:1002B00090E0892B29F00E944D0181110C940000DF
:1002C0000895FC01A48DA80FB92FB11DA35ABF4FEB
:1002D0002C91848D90E001968F739927848FA68945
:1002E000B7892C93A089B1898C91837080648C9399
:1002F000938D848D981306C00288F389E02D808148
:100300008F7D80830895EF92FF920F931F93CF9379
:10031000DF93EC0181E0888F9B8D8C8D98131AC040
:10032000E889F989808185FF15C09FB7F894EE8927
:10033000FF896083E889F989808183708064808384
:100340009FBF81E090E0DF91CF911F910F91FF90CF
:10035000EF900895F62E0B8D10E00F5F1F4F0F7377
:100360001127E02E8C8D8E110CC00FB607FCFACF32
:10037000E889F989808185FFF5CFCE010E9461016E
:10038000F1CFEB8DEC0FFD2FF11DE35AFF4FF08203
:100390009FB7F8940B8FEA89FB8980818062CFCF69
:1003A000CF93DF93EC01888D8823B9F0AA89BB89AC
:1003B000E889F9898C9185FD03C0808186FD0DC097
:1003C0000FB607FCF7CF8C9185FFF2CF808185FFB8
:1003D000EDCFCE010E946101E9CFDF91CF91089569
:1003E00090E0FC01E859FF4F2491FC01EC55FF4FD0
:1003F0003491FC01E057FF4FE491EE23C9F0222332
:1004000039F0233001F1A8F4213019F1223029F11B
:10041000F0E0EE0FFF1FE458FF4FA591B4918FB7A6
:10042000F894EC91611126C030953E233C938FBF28
:1004300008952730A9F02830C9F0243049F7809179
:1004400080008F7D03C0809180008F778093800033
:10045000DFCF84B58F7784BDDBCF84B58F7DFBCFB5
:100460008091B0008F778093B000D2CF8091B000A0
:100470008F7DF9CF3E2BDACF81E08093AE011092D1
:10048000AD011092AC0160E083E00C94F00108959E
:100490008091AE018823F9F02091AC013091AD013B
:1004A0008091060190910701281739075CF061E0FF
:1004B00083E00E94F0011092AD011092AC01109205
:1004C000AE0108958091AC019091AD010196909399
:1004D000AD018093AC010895FC0101900020E9F783
:1004E0003197AF01481B590BBC0182EC91E00C9491
:1004F00088008F929F92AF92BF920F931F93CF93DA
:10050000DF93CDB7DEB7A1970FB6F894DEBF0FBE6D
:10051000CDBF19A2423008F44AE08E010F5D1F4F93
:10052000842E912CB12CA12CA50194010E94DD06F2
:10053000E62FB901CA01EA30F4F4E05DD801EE9388
:100540008D01232B242B252B79F790E080E0109749
:1005500019F0CD010E946C02A1960FB6F894DEBF8F
:100560000FBECDBFDF91CF911F910F91BF90AF9084
:100570009F908F900895E95CE1CFCF92DF92EF9248
:10058000FF92CF93DF936B017C016DE282EC91E0EF
:100590000E948301EC0166277727CB016C197D0946
:1005A0008E099F094AE00E9479028C0F9D1FDF91FE
:1005B000CF91FF90EF90DF90CF900895CF93DF938E
:1005C0000E946C02EC0180E291E00E946C028C0FB0
:1005D0009D1FDF91CF910895CF93DF93BC01990FB9
:1005E000880B990B97FF0CC00E94BD02EC0180E2C2
:1005F00091E00E946C028C0F9D1FDF91CF910895B6
:100600004AE00E947902F2CFBC01990F880B990B46
:1006100097FD0C94BD024AE00C9479021F920F9250
:100620000FB60F9211242F933F938F939F93AF9305
:10063000BF938091BE019091BF01A091C001B09184
:10064000C1013091BD0123E0230F2D3758F50196EC
:10065000A11DB11D2093BD018093BE019093BF01E8
:10066000A093C001B093C1018091B9019091BA01EA
:10067000A091BB01B091BC010196A11DB11D809359
:10068000B9019093BA01A093BB01B093BC01BF9193
:10069000AF919F918F913F912F910F900FBE0F902F
:1006A0001F90189526E8230F0296A11DB11DD2CFE9
:1006B0001F920F920FB60F9211242F933F934F93D7
:1006C0005F936F937F938F939F93AF93BF93EF93BA
:1006D000FF9382EC91E00E946101FF91EF91BF9145
:1006E000AF919F918F917F916F915F914F913F91CA
:1006F0002F910F900FBE0F901F9018951F920F9281
:100700000FB60F9211242F938F939F93EF93FF9324
:10071000E091D201F091D3018081E091D801F09174
:10072000D90182FD1BC090818091DB018F5F8F73A7
:100730002091DC01821741F0E091DB01F0E0EE5303
:10074000FE4F958F8093DB01FF91EF919F918F91E9
:100750002F910F900FBE0F901F9018958081F4CFAE
:100760001F920F920FB60F9211242F933F934F9326
:100770005F936F937F938F939F93AF93BF93EF9309
:10078000FF93E0910201F09103010995FF91EF9130
:10079000BF91AF919F918F917F916F915F914F9199
:1007A0003F912F910F900FBE0F901F9018951F92A1
:1007B0000F920FB60F9211242F933F934F935F9395
:1007C0006F937F938F939F93AF93BF93EF93FF9319
:1007D000E0910001F09101010995FF91EF91BF9126
:1007E000AF919F918F917F916F915F914F913F91C9
:1007F0002F910F900FBE0F901F9018951F920F9280
:100800000FB60F9211242F933F934F935F936F93E3
:100810007F938F939F93AF93BF93EF93FF93E09159
:10082000AF01F091B0010995FF91EF91BF91AF91A8
:100830009F918F917F916F915F914F913F912F91F8
:100840000F900FBE0F901F9018951092C501109237
:10085000C40188EE93E0A0E0B0E08093C6019093DD
:10086000C701A093C801B093C90182E191E09093C0
:10087000C3018093C20185EC90E09093CF018093F7
:10088000CE0184EC90E09093D1018093D00180EC74
:1008900090E09093D3018093D20181EC90E090930B
:1008A000D5018093D40182EC90E09093D70180939E
:1008B000D60186EC90E09093D9018093D8011092F4
:1008C000DB011092DC011092DD011092DE0110922A
:1008D000600210925F021092620210926102109206
:1008E00064021092630261E070E090E080E00E9498
:1008F0003E080097E1F09093600280935F021092AF
:100900006202109261022091630230916402232BF3
:1009100011F4FC011082109264021092630262E2F0
:1009200071E080915F02909160020C9404098091C3
:100930005F0290916002009711F00E94B50710923B
:10094000600210925F021092640210926302109291
:100950006202109261020895CF93DF93CDB7DEB7A4
:100960002A970FB6F894DEBF0FBECDBF789484B53A
:10097000826084BD84B5816084BD85B5826085BD9B
:1009800085B5816085BD80916E00816080936E0029
:10099000109281008091810082608093810080911B
:1009A00081008160809381008091800081608093CC
:1009B00080008091B10084608093B1008091B0008C
:1009C00081608093B00080917A00846080937A0087
:1009D00080917A00826080937A0080917A008160B1
:1009E00080937A0080917A00806880937A001092D8
:1009F000C100E091D201F091D30182E08083E091C7
:100A0000CE01F091CF011082E091D001F091D1019F
:100A10008FEC80831092DA01E091D601F091D7013A
:100A200086E08083E091D401F091D50180818061DE
:100A30008083E091D401F091D5018081886080832A
:100A4000E091D401F091D501808180688083E091AC
:100A5000D401F091D50180818F7D808382E390E085
:100A6000A0E0B0E08093C6019093C701A093C801B5
:100A7000B093C901E7EAF0E02491E3E9F0E0849162
:100A8000882399F090E0880F991FFC01EA57FF4FE7
:100A9000A591B491FC01E458FF4F859194918FB7D3
:100AA000F894EC91E22BEC938FBF8CE392E090935F
:100AB0000101809300018091690083608093690047
:100AC000E89A80E1809381001092800080E293E0B8
:100AD000909387008093860031E13093810021E07C
:100AE0002093B3019093B2018093B101909387005A
:100AF000809386003093810088E492E09093B00167
:100B00008093AF0120936F0083E291E00E94DE02A8
:100B10008DE291E00E94DE0286E391E00E94DE0217
:100B200081E491E00E94DE028BE491E00E94DE020B
:100B30008E010F5F1F4F34E6F32E4AE0E42E50E0A3
:100B4000C52E50E0D52E64E6A62EB12C82EC91E0A5
:100B50000E944101892B09F16BE070E0C8010E94FD
:100B6000D8004C013801C301801B910B88159905F1
:100B700040F4F30161913F0182EC91E00E94830116
:100B8000F2CF80E291E00E946C028981853409F401
:100B900054C06CF4813409F45FC0C114D104B1F2C3
:100BA0000E944D01882391F20E940000CFCF84352E
:100BB00009F459C0863589F78985082E000C990BF0
:100BC000C097F89E9001F99E300D11248A85082E59
:100BD000000C990BC097E89EA001E99E500D1124CE
:100BE000240F351F8B85082E000C990BC097280FFA
:100BF000391F3093B8012093B701F29EC001F39ED4
:100C0000900D112460910401709105010E94C906A4
:100C1000709307016093060187E691E00E94DE026F
:100C20008091B7019091B8010E9404038091060160
:100C3000909107010E940403B0CF10920701109217
:100C4000060185E591E00E94DE0280910601909107
:100C500007010E94EC02A1CFB0920701A092060109
:100C60008FE591E0F0CF8FE691E00E94DE0282EC0A
:100C700091E00E944101892BD1F363E070E084EBA5
:100C800091E00E94D80024EB622E21E0722E8C5459
:100C90009E4F4C018614970441F0F30161913F018E
:100CA00082EC91E00E948301F5CF80E291E00E9406
:100CB0006C022091B401022E000C330B2053310939
:100CC000F29EC001F39E900D11242091B501022ED9
:100CD000000C330B20533109E29EA001E39E500D1E
:100CE0001124840F951F2091B601022E000C330BA6
:100CF00020533109820F931F9093050180930401C3
:100D000084E991E00E94DE02809104019091050146
:100D100091CF80915F0290916002009711F00C9446
:100D2000B50708952F923F924F925F926F927F92F4
:100D30008F929F92AF92BF92CF92DF92EF92FF92EB
:100D40000F931F93CF93DF93CDB7DEB7CA1BDB0B97
:100D50000FB6F894DEBF0FBECDBF09942A8839883C
:100D600048885F846E847D848C849B84AA84B98443
:100D7000C884DF80EE80FD800C811B81AA81B9814F
:100D8000CE0FD11D0FB6F894DEBF0FBECDBFED0163
:100D9000089597FB072E16F4009407D077FD09D02D
:100DA0000E94FF0607FC05D03EF4909581959F4F69
:100DB0000895709561957F4F0895A1E21A2EAA1BA0
:100DC000BB1BFD010DC0AA1FBB1FEE1FFF1FA217FB
:100DD000B307E407F50720F0A21BB30BE40BF50BF8
:100DE000661F771F881F991F1A9469F76095709581
:100DF000809590959B01AC01BD01CF010895AA1B80
:100E0000BB1B51E107C0AA1FBB1FA617B70710F0F5
:100E1000A61BB70B881F991F5A95A9F78095909527
:100E2000BC01CD010895EE0FFF1F0590F491E02D58
:100E300009940F931F93CF93DF938230910510F4A1
:100E400082E090E0E0916702F091680230E020E0FB
:100E5000B0E0A0E0309799F42115310509F44AC0BB
:100E6000281B390B24303105D8F58A819B81611507
:100E7000710589F1FB0193838283FE0111C04081DA
:100E800051810281138148175907E0F0481759072B
:100E900099F4109761F012960C93129713961C9385
:100EA0003296CF01DF91CF911F910F91089500935A
:100EB000670210936802F4CF2115310551F04217F3
:100EC000530738F0A901DB019A01BD01DF01F801E8
:100ED000C1CFEF01F9CF9093680280936702CDCF25
:100EE000FE01E20FF31F8193919322503109398360
:100EF0002883D7CF2091650230916602232B41F4DD
:100F000020910A0130910B01309366022093650213
:100F100020910801309109012115310541F42DB7C7
:100F20003EB740910C0150910D01241B350BE0910F
:100F30006502F0916602E217F307A0F42E1B3F0B47
:100F40002817390778F0AC014E5F5F4F241735073B
:100F500048F04E0F5F1F50936602409365028193E5
:100F600091939FCFF0E0E0E09CCFCF93DF93009789
:100F7000E9F0FC01329713821282A0916702B091CE
:100F80006802ED0130E020E01097A1F4208131816A
:100F9000820F931F2091650230916602281739074E
:100FA00009F061C0F0936602E0936502DF91CF9192
:100FB0000895EA01CE17DF07E8F54A815B819E01BB
:100FC00041155105B1F7E901FB83EA834991599134
:100FD000C40FD51FEC17FD0761F480819181029643
:100FE000840F951FE90199838883828193819B8374
:100FF0008A83F0E0E0E012968D919C911397009720
:10100000B9F52D913C911197CD010296820F931F56
:1010100020916502309166022817390739F630971A
:1010200051F51092680210926702B0936602A09385
:101030006502BCCFD383C28340815181840F951F49
:10104000C817D90761F44E5F5F4F88819981480FB7
:10105000591F518340838A819B8193838283211509
:10106000310509F0B0CFF0936802E09367029ECF9C
:10107000FD01DC01C0CF13821282D7CFB0E0A0E027
:10108000E4E4F8E00C9494068C01009751F4CB0151
:101090000E9419078C01C801CDB7DEB7E0E10C94BE
:1010A000B006FC01E60FF71F9C0122503109E21740
:1010B000F30708F49DC0D901CD91DC911197C617B3
:1010C000D70798F0C530D10530F3CE0104978617C5
:1010D000970708F3C61BD70B2297C193D1936D9343
:1010E0007C93CF010E94B507D6CF5B01AC1ABD0A35
:1010F0004C018C0E9D1EA0916702B0916802512C8C
:10110000412CF12CE12C109731F5809165029091E2
:1011100066028815990509F05CC04616570608F066
:1011200058C08091080190910901009741F48DB752
:101130009EB740910C0150910D01841B950BE8174F
:10114000F90708F055C0F0936602E0936502F901D3
:1011500071836083A0CF8D919C91119712966C90B2
:10116000129713967C901397A815B90559F56C0141
:1011700042E0C40ED11CCA14DB0420F1AC014A19B0
:101180005B09DA011296159780F0628273825183AF
:101190004083D9016D937C93E114F10471F0D70180
:1011A0001396FC93EE93129776CF22968C0F9D1F89
:1011B000F90191838083F301EFCFF0936802E0930C
:1011C000670269CF4816590608F42C017D01D30146
:1011D0009ACFCB010E9419077C01009749F0AE011C
:1011E000B8010E94FB08C8010E94B507870153CFD0
:1011F00010E000E050CFFB01DC0102C001900D9235
:1012000041505040D8F70895FB01DC0101900D9248
:101210000020E1F7089510E0CDE5D0E004C0FE0124
:101220000E9413072196CE35D107C9F7F894FFCF56
:10123000470247020C0064000000690280000000C1
:10124000000083018800B500D0014101C4003301D2
:101250000D0A00312E454E434544455200322E4181
:10126000504147415200332E564F4C54414A452B72
:1012700000342E4C45435455524100352E54454EB2
:1012800053494F4E00456E63656E6469646F00415B
:1012900070616761646F00566F6C74616A650053BA
:1012A0006574656520656C2076616C6F722064657D
:1012B0002074656E73696F6E20656E206C6120729C
:1012C00065643A004C612054656E73696F6E2073DB
:0C12D0006574656164612065733A20005C
:00000001FF
